:10002B007580FF759000D292D291D290C296C297F2
:10003B00758911750B00E50BB41400500712021AE9
:10004B00050B80F2C292C291C290750B00E50BB406
:10005B001400500712021A050B80F2D292D291D2E1
:10006B0090750B00E50BB41400500712021A050B28
:10007B0080F2C292C291C290750B00E50BB41400D2
:10008B00500712021A050B80F2D292D291D29075C0
:02009B0008015A
:10009D00E58054C0F50DE5805430F50CE50824FFDE
:1000AD00B40C0040030201E2FA232A9000BC730253
:1000BD0000E20200F902011D0201500201E20201FB
:1000CD005C0201E20201990201A50201B10201D90E
:0500DD000201E280BBFE
:1000E2002084067508020201E220850675080602D0
:0A00F20001E275080980A4209613AE
:1000FC00D296750B00E50BB45000500712021A058E
:10010C000B80F22086067508030201E2750809804F
:04011C008020971E8A
:10012000E580F4F50A540FFF1201E5D297750B0034
:10013000E50BB45000500712021A050B80F220861E
:10014000093087067508040201E275080902009D5E
:0F015000D291C290D29275080A02009D30971387
:10015F00C297750B00E50BB45000500712021A0539
:06016F000B80F230961334
:10017500C296750B00E50BB45000500712021A0524
:100185000B80F2308608208705750808804F7508B2
:100195000902009DC291D290D29275080A02009D73
:1001A500C292D291D29075080A02009DE580543022
:1001B500F5F0E50C65F0600575080B8020E58054C9
:1001C500C0F5F0E50D65F0600575080B800F750845
:1001D5000A02009D12021A12021A75080102009DF8
:1001E5008F0EE50E2401FFE43400FEE4FC7DC81209
:1001F50000088E0F8F10E4F511F512E511B50F0506
:10020500E512B51000500D12021A0512E51270EB39
:05021500051180E72245
:10021A00758AAF758C3CD28C308DFDC28CC28D2212
:0300000002001CDF
:0F001C00758113E478FFF6D8FD75A0FF02002B65
:10000300E0A3FEE0FFEF8DF0A4CFC5F0CCA42CFC61
:09001300EE60038DF0A42CFE2226
:00000001FF
